:10000000FEC0000031C100002FC100002DC1000062
:100010002BC1000029C1000027C1000025C100003C
:1000200023C1000021C100001FC100001DC100004C
:100030001BC1000019C100007CC5000015C10000F3
:1000400013C1000011C100000FC100000DC100006C
:100050000BC1000009C1000007C1000005C100007C
:1000600003C100000C94890C0C94450CFDC00000E9
:10007000FBC00000F9C00000F7C00000F5C00000A0
:10008000F3C00000F1C000009FC6000001C70000DF
:10009000EBC00000E9C00000E7C00000E5C00000C0
:1000A000E3C00000E1C00000DFC00000DDC00000D0
:1000B000DBC00000D9C00000D7C00000D5C00000E0
:1000C000D3C00000D1C00000CFC00000CDC00000F0
:1000D000CBC00000C9C00000C7C00000C5C0000000
:1000E000C3C00000C1C00000BFC00000BDC0000010
:1000F000BBC00000B9C00000B7C00000B5C0000020
:10010000B3C00000B1C000008FC50000F6C50000FC
:10011000ABC00000A9C00000A7C00000A5C000003F
:10012000A3C00000A1C000009FC000009DC000004F
:100130000C94A60A99C0000097C0000095C000006A
:1001400093C0000091C000008FC000008DC000006F
:100150008BC0000089C0000087C0000085C000007F
:1001600083C0000081C000007FC000007DC000008F
:100170007BC0000079C0000077C0000075C000009F
:1001800073C0000071C000006FC000006DC00000AF
:100190006BC0000069C0000067C0000065C00000BF
:1001A00063C0000061C000005FC000005DC00000CF
:1001B0005BC0000059C0000057C0000055C00000DF
:1001C00053C0000051C000004FC000004DC00000EF
:1001D0004BC0000049C0000047C0000045C00000FF
:1001E00043C0000041C000003FC000003DC000000F
:1001F0003BC0000039C0000037C00000AF07112429
:100200001FBECFEFCDBFDFE3DEBF00E00CBF18BEE7
:1002100019BE1ABE1BBE10E2A0E0B0E2EAE6F1E2AF
:1002200000E00BBF02C007900D92A234B107D9F7CE
:100230001BBE21E2A2E4B0E201C01D92AC35B207C0
:10024000E1F711E0CEEFD1E000E006C0229701090E
:10025000FE010BBF0E945D0FCC3FD10780E0080775
:10026000A9F785D00C94B310CBCE83E080935000D7
:10027000E0E5F0E0818181FFFDCF88ED84BF81E082
:100280008093400008950F9340E760E08EE10E9464
:100290001A0A40E861E08EE10E941A0A41E062E039
:1002A0008EE10E941A0A81E08093062003E022E09A
:1002B00046E060E08EE10E945B0A06E023E044E055
:1002C00060E08EE10E945B0A00E022E041E060E035
:1002D0008EE10E945B0A0F9108951F93CF93DF93E5
:1002E000EC0113E0612F8EE10E943A0A89931F5FAF
:1002F0001A30C1F780910620813029F441E062E094
:100300008EE10E941A0ADF91CF911F9108950F93F9
:100310001F93CF93DF9300D000D0CDB7DEB78E010F
:100320000F5F1F4F86E0F80111928A95E9F7C80127
:10033000D4DF47E0B8018AE00E94C20B2696CDBF09
:10034000DEBFDF91CF911F910F91089587E8E0EA1A
:10035000F0E08283789408950E94760B2ED10C945D
:10036000030A089582DFF8DFF1DF8DCF0895FADF09
:1003700000000E94CD0B8823A1F080E00E94D00BEA
:100380000E94CA0BDC011196EC911197F0E0EE0F80
:10039000FF1FE95FFF4D0190F081E02D6C91029607
:1003A00019950000E5CF4F925F926F927F928F92E6
:1003B0009F92AF92BF92CF92DF92EF92FF920F93F4
:1003C0001F93CF93DF9300D01F92CDB7DEB720E30A
:1003D000829FC00111248C010A5B1F4DF80120810E
:1003E00031814281538160897189828993890E9418
:1003F000F90C6B017C01F8012489358946895789FC
:100400000E94FA0C4B015C01F801648B758B868BA2
:10041000978B208D318D428D538DC701B6010E947F
:10042000F90C69837A838B839C83F80140A051A0E7
:1004300062A073A0A3019201C501B4010E94B10E94
:100440004B015C0120E030E040E854E40E94AD0E36
:10045000882374F0A301920160E070E080E894E4E6
:100460000E94620DF801648B758B868B978B17C089
:1004700020E030E040E854ECC501B4010E945E0D7C
:1004800018166CF0A301920160E070E080E894EC33
:100490000E94620DF801648B758B868B978BF80137
:1004A000248D358D468D578DC701B6010E94B10E42
:1004B0004B015C01F8012489358946895789C301BC
:1004C000B2010E94B10E9B01AC01C501B4010E94B2
:1004D000FA0C4B015C01F80124A135A146A157A1FA
:1004E00069817A818B819C810E94B10E9B01AC0154
:1004F000C501B4010E94FA0CF801648775878687EC
:100500009787C08ED18EE28EF38E2496CDBFDEBF4C
:10051000DF91CF911F910F91FF90EF90DF90CF90DF
:10052000BF90AF909F908F907F906F905F904F9013
:100530000895CF92DF92EF92FF920F931F93CF9384
:10054000DF9300E3809FC0011124EC01CA5BDF4D03
:10055000F894CC80DD80EE80FF80789448A559A582
:100560006AA57BA597018601041B150B260B370B8B
:10057000C901B8010E94FD0D20913520309136202F
:1005800040913720509138200E94B10E2AE037ED7B
:1005900043E25CE30E94620D688379838A839B83D4
:1005A000C8A6D9A6EAA6FBA6DF91CF911F910F910D
:1005B000FF90EF90DF90CF9008954F925F926F92EF
:1005C0007F928F929F92AF92BF92CF92DF92EF92E3
:1005D000FF9281E390E2AFD58DE290E226D589E2E9
:1005E00090E2A9D585E290E220D5E0E0F6E086E051
:1005F0008283128A84E1828785E08187118A9AE06A
:100600009387E0E2F6E023E02283108A82878187E5
:10061000118A9387E0E0F8E08083118212821382CE
:10062000148288E893E186A397A381E086834090B3
:10063000392050903A2060903B2070903C2060918F
:100640003D2070913E20882777FD8095982F0E944D
:10065000FD0D6B017C0160913F2070914020882747
:1006600077FD8095982F0E94FD0D4B015C016093F2
:10067000C2207093C3208093C4209093C5202AE0A9
:1006800037ED43E25CE3C701B6010E94B10E6B0196
:100690007C016093C6207093C7208093C8209093FC
:1006A000C9202AE037ED43E25CE3C301B2010E94B6
:1006B000620D6093CA207093CB208093CC209093DE
:1006C000CD208092F2209092F320A092F420B0925C
:1006D000F520C092F620D092F720E092F820F09218
:1006E000F9206093FA207093FB208093FC20909374
:1006F000FD208092622090926320A0926420B092AC
:100700006520C0926620D0926720E0926820F09227
:10071000692060936A2070936B2080936C20909383
:100720006D208092922090929320A0929420B0927B
:100730009520C0929620D0929720E0929820F09237
:10074000992060939A2070939B2080939C20909393
:100750009D20FF90EF90DF90CF90BF90AF909F9043
:100760008F907F906F905F904F900895FF920F93BE
:100770001F93CF93DF93F894082F192FC0E0D0E098
:100780000F2EF0E3FF2EF02DC8010E94F80BCF9D35
:10079000F0011124EA5BFF4D608B718B828B938B90
:1007A00021960C5F1F4FC430D10571F77894DF910B
:1007B000CF911F910F91FF900895CF93DF93CDB705
:1007C000DEB76097CDBFDEBF4091A6205091A72035
:1007D0006091A8207091A920CE0109960E94220C58
:1007E0004091D6205091D7206091D8207091D92087
:1007F000CE010D960E94220C409146205091472038
:100800006091482070914920CE0101960E94220CEF
:1008100040917620509177206091782070917920D6
:10082000CE0105960E94220C41E1BE016F5F7F4F11
:1008300088E0A8D76096CDBFDEBFDF91CF91089545
:100840004F925F926F927F928F929F92AF92BF92E0
:10085000CF92DF92EF92FF92CF93DF93EC018881EA
:1008600090E080933F2090934020CE010896C0D71F
:1008700020E030E44CE156E40E94620D0E94CA0D73
:100880006B017C0160933D2070933E206C8170E091
:1008900080E090E00E94FD0D2B013C016093392027
:1008A00070933A2080933B2090933C2060913F20AE
:1008B00070914020882777FD8095982F0E94FD0D2C
:1008C0004B015C016093C2207093C3208093C420CD
:1008D0009093C520B601882777FD8095982F0E94B8
:1008E000FD0D2AE037ED43E25CE30E94B10E6B019F
:1008F0007C016093C6207093C7208093C82090939A
:10090000C9202AE037ED43E25CE3C301B2010E9453
:10091000620D6093CA207093CB208093CC2090937B
:10092000CD208092F2209092F320A092F420B092F9
:10093000F520C092F620D092F720E092F820F092B5
:10094000F9206093FA207093FB208093FC20909311
:10095000FD208092622090926320A0926420B09249
:100960006520C0926620D0926720E0926820F092C5
:10097000692060936A2070936B2080936C20909321
:100980006D208092922090929320A0929420B09219
:100990009520C0929620D0929720E0929820F092D5
:1009A000992060939A2070939B2080939C20909331
:1009B0009D20DF91CF91FF90EF90DF90CF90BF907F
:1009C000AF909F908F907F906F905F904F90089521
:1009D0008F929F92AF92BF92CF92DF92EF92FF924F
:1009E0000F931F93CF93DF93CDB7DEB7A897CDBFFB
:1009F000DEBF06E410E20F2EF6E08F2EF1E29F2E0E
:100A0000F02D9E012F5F3F4F5901F894F801C480EB
:100A1000D580E680F7807894F80184A595A5A6A5F1
:100A2000B7A5A7019601281B390B4A0B5B0B2DA319
:100A30003EA34FA358A76DA17EA18FA198A50E94A8
:100A4000FD0D209135203091362040913720509176
:100A500038200E94B10E69A37AA38BA39CA389A11D
:100A60009AA1ABA1BCA1F50181939193A193B193FC
:100A70005F01F801C4A6D5A6E6A6F7A6005D1F4F44
:100A80000815190509F0C1CF8E010F5F1F4F6E01C8
:100A9000F1E1CF0ED11C780120E1E20EF11CF8014A
:100AA00041915191619171918F01C601CBD6F4E0D2
:100AB000CF0ED11C0E151F0591F741E1BE016F5EEF
:100AC0007F4F85E05FD6A896CDBFDEBFDF91CF9187
:100AD0001F910F91FF90EF90DF90CF90BF90AF905C
:100AE0009F908F900895CF93DF931F921F92CDB761
:100AF000DEB74091352050913620609137207091BB
:100B00003820CE010196B1D643E0BE016F5F7F4F22
:100B100087E038D60F900F90DF91CF91089580D65F
:100B2000609335207093362080933720909338203F
:100B300008951F920F920FB60F92112408B60F92CC
:100B400018BE09B60F9219BE0BB60F921BBE2F939B
:100B50003F934F935F936F937F938F939F93AF9345
:100B6000BF93EF93FF9382E0E4DC83E0E2DC80E07C
:100B7000E0DC81E0DEDC82E016DC83E014DC80E097
:100B800012DC81E010DC4091B2205091B3206091E2
:100B9000B4207091B52089E290E288D34091E220A0
:100BA0005091E3206091E4207091E52085E290E28D
:100BB00026D340915220509153206091542070913F
:100BC000552081E390E272D340918220509183209E
:100BD00060918420709185208DE290E210D3FF9186
:100BE000EF91BF91AF919F918F917F916F915F91A5
:100BF0004F913F912F910F900BBE0F9009BE0F9018
:100C000008BE0F900FBE0F901F9018959C0136954F
:100C100027952115310539F0822793273695279599
:100C200021153105C9F708951F920F920FB60F9243
:100C3000112408B60F9218BE09B60F9219BE0BB652
:100C40000F921BBE0F931F932F933F934F935F936E
:100C50006F937F938F939F93AF93BF93EF93FF9384
:100C6000E0E0F6E08085908592FB222720F930E0D5
:100C7000807190E095958795959587959595879541
:100C8000822B932BC3DF90914520282F291B422FC5
:100C9000233014F04CEF420F4E3F0CF44C5FEAE46B
:100CA000F0E20081118122813381552747FD509563
:100CB000652F752F400F511F621F731F4083518393
:100CC0006283738380934520FF91EF91BF91AF9131
:100CD0009F918F917F916F915F914F913F912F9154
:100CE0001F910F910F900BBE0F9009BE0F9008BE81
:100CF0000F900FBE0F901F9018951F920F920FB676
:100D00000F92112408B60F9218BE09B60F9219BEA1
:100D10000BB60F921BBE0F931F932F933F934F93CE
:100D20005F936F937F938F939F93AF93BF93EF9353
:100D3000FF93E0E0F6E08085908591FB222720F983
:100D400030E0887090E09595879595958795822BF2
:100D5000932B5CDF90914420282F291B422F2330B6
:100D600014F04CEF420F4E3F0CF44C5FEAE7F0E218
:100D70000081118122813381552747FD5095652FD0
:100D8000752F400F511F621F731F40835183628371
:100D9000738380934420FF91EF91BF91AF919F9116
:100DA0008F917F916F915F914F913F912F911F9103
:100DB0000F910F900BBE0F9009BE0F9008BE0F90C1
:100DC0000FBE0F901F9018951F920F920FB60F92A3
:100DD000112408B60F9218BE09B60F9219BE0BB6B1
:100DE0000F921BBE0F931F932F933F934F935F93CD
:100DF0006F937F938F939F93AF93BF93EF93FF93E3
:100E0000E0E2F6E080854085847090E095958795D6
:100E1000242F217030E0822B932BF8DE9091432019
:100E2000282F291B422F233014F04CEF420F4E3F46
:100E30000CF44C5FEAEAF0E20081118122813381F7
:100E4000552747FD5095652F752F400F511F621F85
:100E5000731F408351836283738380934320FF9188
:100E6000EF91BF91AF919F918F917F916F915F9122
:100E70004F913F912F911F910F910F900BBE0F90AB
:100E800009BE0F9008BE0F900FBE0F901F901895CF
:100E90001F920F920FB60F92112408B60F9218BE30
:100EA00009B60F9219BE0BB60F921BBE0F931F937C
:100EB0002F933F934F935F936F937F938F939F9362
:100EC000AF93BF93EF93FF93E0E2F6E080859085C8
:100ED00091FB222720F930E0887090E09595879566
:100EE00095958795822B932B91DE90914220282F08
:100EF000291B422F233014F04CEF420F4E3F0CF4CD
:100F00004C5FEAEDF0E200811181228133815527A7
:100F100047FD5095652F752F400F511F621F731F9E
:100F2000408351836283738380934220FF91EF91CA
:100F3000BF91AF919F918F917F916F915F914F91F1
:100F40003F912F911F910F910F900BBE0F9009BEF3
:100F50000F9008BE0F900FBE0F901F901895E6E4FB
:100F6000F0E2A6E5B0E286E091E210821182128200
:100F700013821482158216821782108611861286B9
:100F8000138614861586168617861D921D921D924D
:100F90001C921397148A158A168A178A108E118E3E
:100FA000128E138E148E158E168E178E50961D92DD
:100FB0001D921D921C92539754961D921D921D9244
:100FC0001C92579758961D921D921D921C925B97EA
:100FD0005C961D921D921D921C925F97F096D09682
:100FE000E817F90711F60895CF92DF92EF92FF927A
:100FF000CF93DF936A017B01FC01C281D38120E0A2
:1010000030E040E85AE3C701B601ABD620E030E05B
:1010100040ED54E4A6D6C3D568A779A7DF91CF9158
:10102000FF90EF90DF90CF9008950F931F93CF9391
:10103000DF9300D01F92CDB7DEB78C01DC01ED91BC
:10104000FC91119780EF8183ED91FC91119786833C
:10105000ED91FC91119788E1878BED91FC911197AF
:1010600080E885831296ED91FC91139781E080834F
:101070001296ED91FC91139783E181831296ED9185
:10108000FC91139780E896E086A397A31296ED91C2
:10109000FC91139710A611A6ED91FC91119780E495
:1010A0008583ED91FC9180E2868319821A821B82EE
:1010B0001C8269817A818B819C8120E030E040E84C
:1010C00054E44BD6882344F080E090E0A0E8B4E4F8
:1010D00089839A83AB83BC8349815A816B817C81EC
:1010E000C80182DF2496CDBFDEBFDF91CF911F9173
:1010F0000F910895CF92DF92EF92FF92CF93DF93FB
:101100006A017B01FC01C281D38120E030E040E82C
:101110005AE3C701B60125D620E030E040ED54E4A3
:1011200020D63DD56EA77FA7DF91CF91FF90EF909E
:10113000DF90CF9008950F931F93CF93DF9300D04C
:101140001F92CDB7DEB78C01DC01ED91FC911197B8
:101150008FE08183ED91FC9111978683ED91FC9155
:10116000119788E1808BED91FC91119781E0858347
:101170001296ED91FC91139724E020831296ED9145
:10118000FC91139783E881831296ED91FC9113975C
:1011900080E896E086A397A31296ED91FC911397B1
:1011A00016A617A6ED91FC9111972583ED91FC9160
:1011B00082E0868319821A821B821C8269817A816D
:1011C0008B819C8120E030EC4FE754E4C6D5882326
:1011D00044F080E090ECAFE7B4E489839A83AB837A
:1011E000BC8349815A816B817C81C80183DF24964D
:1011F000CDBFDEBFDF91CF911F910F910895CF92A8
:10120000DF92EF92FF920F931F93CF93DF9300D063
:101210001F92CDB7DEB78C016A017B0120E030E080
:10122000A901C701B6014AD488235CF4D801ED9125
:10123000FC91119780E48683ED91FC9180E2858397
:101240000AC0D801ED91FC91119780E48583ED915E
:10125000FC9180E28683E894F7F8C982DA82EB8217
:10126000FC8269817A818B819C8120E030E040E8BA
:1012700054E473D5882344F080E090E0A0E8B4E41F
:1012800089839A83AB83BC8349815A816B817C813A
:10129000C801AADE2496CDBFDEBFDF91CF911F919A
:1012A0000F91FF90EF90DF90CF900895CF92DF9253
:1012B000EF92FF920F931F93CF93DF9300D01F9273
:1012C000CDB7DEB78C016A017B0120E030E0A901D7
:1012D000C701B601F3D388235CF4D801ED91FC91EA
:1012E000119784E08683ED91FC9182E085830AC0AA
:1012F000D801ED91FC91119784E08583ED91FC91EB
:1013000082E08683E894F7F8C982DA82EB82FC8275
:1013100069817A818B819C8120E030EC4FE754E435
:101320001CD5882344F080E090ECAFE7B4E48983D7
:101330009A83AB83BC8349815A816B817C81C801CC
:10134000D9DE2496CDBFDEBFDF91CF911F910F91E3
:10135000FF90EF90DF90CF900895FC01009709F483
:101360004EC0908580910F2102C091114AC0811119
:10137000FCCF81E080930F2180E88093102180E9E9
:1013800094E08093062190930721E0930821F09345
:10139000092110920A2110920B2110920C21109217
:1013A0000D2160930E218081282F220F828193814D
:1013B000892B11F4611104C0E0E9F4E0268304C034
:1013C0002160E0E9F4E02683E0E1F1E28081803809
:1013D000E9F3E0910621F091072184818370813047
:1013E00049F0A6E0B1E2ED91FC9111978481837000
:1013F0008130C9F78091102110920F21089588EF54
:10140000089586EF0895E0E6F6E083E08183808921
:101410008861808B81898861818BE0E9F4E08BE9C8
:10142000858388E7818381E0848310920F21109265
:1014300010210895CF93DF93CDB7DEB72A97CDBFA4
:10144000DEBF4A876A8321E030E02B833C838983B7
:10145000CE010A968D839E832F83388760E0CE016C
:1014600001967BDF8111FACF2A96CDBFDEBFDF91D7
:10147000CF910895CF93DF93CDB7DEB72A97CDBF35
:10148000DEBF1A866A8321E030E02B833C838983A8
:10149000CE010A968D839E832F83388761E0CE012B
:1014A00001965BDF8111FACF8A852A96CDBFDEBF18
:1014B000DF91CF910895CF92DF92FF920F931F9308
:1014C000CF93DF93182FF62ED42FC22FD3DF88238C
:1014D000A9F1ED2FF0E02C2F30E0C02ED12CC8E088
:1014E000D0E0AE01421B530B02C0CC0CDD1C4A9570
:1014F000E2F7DD2467E070E06E1B7F0BA60102C0FF
:10150000559547956A95E2F7CE1BDF0B2C0F3D1FD3
:1015100021503109AFEFB0E0BD0102C0759567956C
:101520002A95E2F7319602C0AA0FBB1FEA95E2F7AF
:10153000A62B8A23482B6F2D812F7CDFDF91CF9143
:101540001F910F91FF90DF90CF9008951F920F92FF
:101550000FB60F92112408B60F9218BE09B60F925B
:1015600019BE0AB60F921ABE0BB60F921BBE2F936E
:101570003F934F935F936F938F939F93AF93BF93DB
:10158000CF93DF93EF93FF93E0910621F091072132
:10159000848183FF08C08860848383E0838386EF2F
:1015A0008093102189C0982F947131F083E0838358
:1015B0008FEF8093102180C086FF45C0A091082145
:1015C000B091092180910A2190910B2112962D91C1
:1015D0003C911397821793076CF49C012F5F3F4F48
:1015E00020930A2130930B21A80FB91F11968C91DB
:1015F000878362C080910C2190910D2116962D91C8
:101600003C91179782179307C8F420910E2122234B
:1016100021F08681816086834FC014962D913C9184
:101620001597AC014F5F5F4F40930C2150930D21F4
:10163000D901A80FB91F8C9187833EC083E08383B3
:101640001092102139C08823A4F5A0910821B091EF
:10165000092180910C2190910D2116962D913C919C
:10166000179782179307F8F414964D915C9115978C
:101670009C012F5F3F4F20930C2130930D216781F8
:10168000EA01C80FD91F688316968D919C91179710
:101690002817390718F482E083830EC087E083831C
:1016A0001092102109C083E0838389EF8093102179
:1016B00003C08BEF80931021FF91EF91DF91CF91C9
:1016C000BF91AF919F918F916F915F914F913F919A
:1016D0002F910F900BBE0F900ABE0F9009BE0F9076
:1016E00008BE0F900FBE0F901F901895E0E4F6E033
:1016F00088E085838183E0EAF8E080E3838388E102
:10170000848383E0858385EE86838CEB87830895CD
:10171000942F24E0240F20935421213488F5E0EA0B
:10172000F8E023812C7F23832EE53EE54EE52093D0
:10173000112130931221409313219093142180930F
:101740001521292F30E021503109121613066CF4AF
:10175000A62FB72FE6E1F1E2892F90E08B5E9E4D38
:101760002D912193E817F907D9F710925121E0EA5A
:10177000F8E083818260838381E08093572108951C
:1017800080E00895C5DF882321F0909157219111C1
:10179000FCCF089581E191E208958091522108954E
:1017A000809352210895462FBC0183E0EBCF08952A
:1017B000DF92EF92FF920F931F93CF93DF937C0101
:1017C000D62E062F10E061E070E0C8017BD3EC015B
:1017D000A801B701B8D46D2DCE01E5DFCE0124D428
:1017E000DF91CF911F910F91FF90EF90DF900895BF
:1017F000FC0123816281862F90E0A0E0B0E0DC0153
:1018000099278827B22B2081822B2181BC01CD0111
:10181000722BF3D120E030E04AE754E453C108953D
:10182000FC01618170E0762F66278081682B882714
:1018300077FD8095982FE1D120E030E04AE754E42D
:1018400041C10895CF93DF93EC01CB01BA0120E0B1
:1018500030E04AE754E485D2E7D29CD168837983AB
:101860008A839B83DF91CF910895CF93DF93EC011F
:10187000CB01BA0120E030E04AE754E472D28AD1C9
:1018800068837983DF91CF9108951F920F920FB6ED
:101890000F92112408B60F9218BE09B60F9219BE06
:1018A0000BB60F921BBE8F939F93AF93BF93EF9393
:1018B000FF939091512180915421981790F4E1E584
:1018C000F1E2A081B0E0AF5EBE4D8C918093A008A4
:1018D000A081B0E0AF5EBE4D1C9280818F5F80839F
:1018E00007C0E0EAF8E083818C7F83831092512166
:1018F000FF91EF91BF91AF919F918F910F900BBE90
:101900000F9009BE0F9008BE0F900FBE0F901F9052
:1019100018951F920F920FB60F92112408B60F92CE
:1019200018BE0BB60F921BBE2F938F939F93EF930E
:10193000FF93F8949091A008809153218130C9F0D1
:1019400018F0823009F146C080915221811142C0C5
:101950009E3529F4809156218F5F80935621809186
:1019600056218330B9F581E080935321109256219E
:1019700031C0909355219093112181E080935121A2
:1019800082E08093532126C080915721882339F02B
:10199000911120C010925721109253211BC08091A9
:1019A00055212FEF280F20935521882361F0E1E581
:1019B000F1E2808121E0280F2083E82FF0E0EF5E44
:1019C000FE4D908307C081E08093522110925321F5
:1019D000109251217894FF91EF919F918F912F91C7
:1019E0000F900BBE0F9008BE0F900FBE0F901F9070
:1019F00018955058BB27AA270ED075C166D130F074
:101A00006BD120F031F49F3F11F41EF45BC10EF452
:101A1000E095E7FB51C1E92F77D180F3BA17620750
:101A200073078407950718F071F49EF58FC10EF4C3
:101A3000E0950B2EBA2FA02D0B01B90190010C01DE
:101A4000CA01A0011124FF27591B99F0593F50F4F6
:101A5000503E68F11A16F040A22F232F342F44274E
:101A6000585FF3CF469537952795A795F040539546
:101A7000C9F77EF41F16BA0B620B730B840BBAF016
:101A80009150A1F0FF0FBB1F661F771F881FC2F781
:101A90000EC0BA0F621F731F841F48F48795779595
:101AA0006795B795F7959E3F08F0B3CF9395880F4C
:101AB00008F09927EE0F979587950895D9D008F4E7
:101AC00081E008950CD00FC107D140F0FED030F076
:101AD00021F45F3F19F0F0C0511139C1F3C014D1A6
:101AE00098F39923C9F35523B1F3951B550BBB27E5
:101AF000AA2762177307840738F09F5F5F4F220F92
:101B0000331F441FAA1FA9F333D00E2E3AF0E0E88A
:101B100030D091505040E695001CCAF729D0FE2FD6
:101B200027D0660F771F881FBB1F26173707480768
:101B3000AB07B0E809F0BB0B802DBF01FF2793581E
:101B40005F4F2AF09E3F510568F0B6C000C15F3F6D
:101B5000ECF3983EDCF3869577956795B795F79506
:101B60009F5FC9F7880F911D9695879597F90895FE
:101B7000E1E0660F771F881FBB1F6217730784079A
:101B8000BA0720F0621B730B840BBA0BEE1F88F7A9
:101B9000E095089504D06894B111D9C00895BCD0DF
:101BA00088F09F5790F0B92F9927B751A0F0D1F046
:101BB000660F771F881F991F1AF0BA95C9F712C0D0
:101BC000B13081F0C3D0B1E00895C0C0672F782F45
:101BD0008827B85F39F0B93FCCF38695779567953C
:101BE000B395D9F73EF490958095709561957F4FA8
:101BF0008F4F9F4F0895E89409C097FB3EF490954E
:101C00008095709561957F4F8F4F9F4F9923A9F0D5
:101C1000F92F96E9BB279395F69587957795679564
:101C2000B795F111F8CFFAF4BB0F11F460FF1BC0A8
:101C30006F5F7F4F8F4F9F4F16C0882311F096E93B
:101C400011C0772321F09EE8872F762F05C06623E9
:101C500071F096E8862F70E060E02AF09A95660FA2
:101C6000771F881FDAF7880F9695879597F908955B
:101C7000990F0008550FAA0BE0E8FEEF161617069D
:101C8000E807F907C0F012161306E407F50798F005
:101C9000621B730B840B950B39F40A2661F0232B1E
:101CA000242B252B21F408950A2609F4A140A6959A
:101CB0008FEF811D811D089597F99F6780E870E07F
:101CC00060E008959FEF80EC089500240A941616B2
:101CD000170618060906089500240A94121613061A
:101CE000140605060895092E0394000C11F48823A8
:101CF00052F0BB0F40F4BF2B11F460FF04C06F5FC4
:101D00007F4F8F4F9F4F089557FD9058440F551F99
:101D100059F05F3F71F04795880F97FB991F61F06D
:101D20009F3F79F087950895121613061406551FE4
:101D3000F2CF4695F1DF08C0161617061806991F50
:101D4000F1CF86957105610508940895E894BB2745
:101D500066277727CB0197F908958ADF08F48FEF7C
:101D600008950BD0C0CFB1DF28F0B6DF18F095236F
:101D700009F0A2CFA7CF1124EACFC6DFA0F3959F29
:101D8000D1F3950F50E0551F629FF001729FBB2762
:101D9000F00DB11D639FAA27F00DB11DAA1F649F0E
:101DA0006627B00DA11D661F829F2227B00DA11DC1
:101DB000621F739FB00DA11D621F839FA00D611D47
:101DC000221F749F3327A00D611D231F849F600D68
:101DD000211D822F762F6A2F11249F5750408AF0A1
:101DE000E1F088234AF0EE0FFF1FBB1F661F771F2D
:101DF000881F91505040A9F79E3F510570F05CCF6D
:101E0000A6CF5F3FECF3983EDCF386957795679518
:101E1000B795F795E7959F5FC1F7FE2B880F911D4A
:101E20009695879597F9089577DFE0F09E37D8F07B
:101E30009639B8F49E3848F4672F782F8827985F32
:101E4000F9CF86957795679593959539D0F3B62F09
:101E5000B1706B0F711D811D20F487957795679583
:101E6000939502C01CC073CF882371F4772321F0AF
:101E70009850872B762F07C0662311F499270DC041
:101E80009051862B70E060E02AF09A95660F771FDC
:101E9000881FDAF7880F9695879597F908959F3FE1
:101EA00031F0915020F4879577956795B795880F15
:101EB000911D9695879597F908950790F691E02DD5
:101EC0001BBE19940F931F93CF93DF93869F8001BE
:101ED000879F100D969F100D1124C8010DD0EC01A5
:101EE000009721F0A80160E070E036D1CE01DF91CB
:101EF000CF911F910F910895CF93DF938230910579
:101F000010F482E090E0E0915A21F0915B2120E012
:101F100030E0A0E0B0E0309739F1408151814817BE
:101F20005907B8F04817590771F4828193811097C7
:101F300029F012968D939C9313972CC080935A216D
:101F400090935B2127C02115310531F042175307CB
:101F500018F0A901DB0101C0EF019A01BD01DF0109
:101F60000280F381E02DD7CF21153105F9F0281B30
:101F7000390B2430310580F48A819B81611571050C
:101F800021F0FB018283938304C080935A219093B4
:101F90005B21FE01329644C0FE01E20FF31F8193E4
:101FA000919322503109288339833AC020915821D6
:101FB00030915921232B41F42091022030910320AC
:101FC00020935821309359212091002030910120F5
:101FD0002115310541F42DB73EB7409104205091B1
:101FE0000520241B350BE0915821F0915921E2176F
:101FF000F307A0F42E1B3F0B2817390778F0AC012C
:102000004E5F5F4F2417350748F04E0F5F1F409318
:102010005821509359218193919302C0E0E0F0E060
:10202000CF01DF91CF910895CF93DF93009709F40B
:1020300087C0FC01329712821382C0915A21D0913D
:102040005B21209781F420813181280F391F8091F5
:102050005821909159218217930779F5E0935821DF
:10206000F09359216DC0DE0120E030E0AE17BF07CC
:1020700050F412964D915C9113979D0141155105B5
:1020800009F1DA01F3CFA283B38340815181840F38
:10209000951F8A179B0771F48D919C911197840F5E
:1020A000951F02968083918312968D919C91139730
:1020B000828393832115310529F4E0935A21F0930B
:1020C0005B213EC0D9011296ED93FC9313974D917D
:1020D0005D91A40FB51FEA17FB0779F48081918108
:1020E000840F951F0296D9018D939C93119782813D
:1020F000938112968D939C931397E0E0F0E08A8190
:102100009B81009719F0FE01EC01F9CFCE010296F8
:1021100028813981820F931F2091582130915921B4
:102120002817390769F4309729F410925A21109230
:102130005B2102C012821382C0935821D09359218F
:10214000DF91CF910895FB01DC0102C001900D9257
:1021500041505040D8F70895DC0101C06D934150C3
:0A2160005040E0F70895F894FFCF17
:10216A0000005C2120000100000000D80BD30BB650
:10217A0003E8048F057305DD0320048701000000CE
:10218A0000000000008006400A8006000AA00640FF
:10219A000BA006000BFBD3B73A17B7D139860B78D9
:0221AA00000033
:00000001FF
